:020000040800F2
:10800000081F0020419C0008759C0008779C000810
:10801000799C00087B9C00087D9C00080000000003
:108020000000000000000000000000007F9C00082D
:10803000819C000800000000839C0008859C0008CB
:108040005B9C00085B9C00085B9C00085B9C000834
:108050005B9C00085B9C00084FB500085B9C000817
:108060005B9C00085B9C00085B9C00085B9C000814
:108070005B9C000863AB00085B9C00085B9C0008ED
:108080005B9C00085B9C0008979C00085B9C0008B8
:108090005B9C00085B9C00085B9C0008D1B8000852
:1080A0005B9C00085B9C00085B9C00085B9C0008D4
:1080B0005B9C0008ABB800085B9C00085B9C000858
:1080C0005B9C00085B9C00085B9C00085B9C0008B4
:1080D0005B9C00085B9C00085B9C00087FAB000871
:1080E0005B9C00085B9C00085B9C0008DFF80CD0E0
:1080F00004F0D4FC00480047659C0008081F0020DD
:108100002849084328490860704770B50F23C47890
:1081100001780122F4B1244C2468457804F4E06429
:10812000C4F5E064240AC4F10406E3408478B54051
:108130001C402C4301F1E021230181F80034007838
:1081400000F01F018A404009800000F1E020C0F8E3
:10815000002170BD01F01F0082404809800000F13D
:10816000E020C0F8802170BD104A114001430E4844
:10817000001F016070470C4A121D0029116801D0D0
:10818000014300E08143116070474FF0E021042873
:10819000086903D020F004000861704740F0040033
:1081A000FAE700000000FA050CED00E080FFFF1F79
:1081B000914910B5884206D10121042000F051FAFE
:1081C000002104203BE08D49884206D1012108208E
:1081D00000F047FA0021082031E08949884206D1A1
:1081E0000121102000F03DFA0021102027E08549F0
:1081F000884206D10121202000F033FA00212020FE
:108200001DE08149884206D10121402000F029FA71
:108210000021402013E07D49884206D101218020C1
:1082200000F01FFA0021802009E0794988420AD134
:1082300084150121204600F014FA00212046BDE8F3
:10824000104000F00EBA10BD10B50121084600F034
:1082500008FA0021BDE81040012000F002BAF0B594
:10826000CA78002502F00F03D20601D58A7813439D
:108270000A784FF00F0E12F0FF0F4FF001021DD0E1
:10828000D0F800400F8802FA05F63740B74211D106
:108290004FEA850C0EFA0CF724EA070703FA0CF4F0
:1082A0003C43CF78282F02D0482F02D002E046610D
:1082B00000E006616D1C082DE4D304600C88FF2CDF
:1082C0001ED944685FF0000606F1080702FA07F5B8
:1082D0000F882F40AF420FD14FEA860C0EFA0CF7F1
:1082E000BC4303FA0CF73C43CF78282F00D14561FB
:1082F000CF78482F00D10561761C082EE4D3446066
:10830000F0BD4FF6FF710180022181700421C17020
:1083100070470246002092680A4200D00120704750
:10832000806880B2704702460020D2680A4200D0BE
:1083300001207047C06880B2704701617047416199
:1083400070470AB10161704741617047C160704771
:1083500041F4803282618161826181698069704704
:108360002C4B10B51A684FF68074224042EA001078
:108370000843186010BD2849C8617047F0B5254C06
:10838000002801DAE36900E06368420D120185B25A
:10839000C0F301579540C0F30346032F05D0C20236
:1083A0000AD50322B240934307E023F0706263686A
:1083B00023F07063636002E0AB4343F0706201B18D
:1083C0002A43002801DAE261F0BD6260F0BD10B519
:1083D0008A0721F003040F49130F21440F228C68F0
:1083E0009A4094438C608A68984002438A6010BD2A
:1083F0000949C1F8DC00704700080140000C014049
:10840000001001400014014000180140001C014010
:10841000002001400000014000002042A748016800
:1084200041F0010101604168A54A114041600168C5
:10843000A44A11400160016821F480210160416873
:1084400021F4FE0141604FF41F01816070479B4998
:108450000A6822F480320A600A6822F480220A60E4
:10846000B0F5803F07D0B0F5802F03D1086840F405
:10847000A02008607047086840F48030F9E70246A1
:10848000002053098D49012B0AD0022B0AD0496ADA
:1084900002F01F02012393400B4200D001207047DD
:1084A0000968F5E7096AF3E718B500204FF4A064FE
:1084B00000903120FFF7E3FF0099491C0091A14291
:1084C00001D00028F5D03120FFF7D9FF002800D0D7
:1084D000012018BD79490A6822F0F80242EAC0007A
:1084E00008607047784908607047744A53680843C9
:1084F00023F47C1318435060704773490866704733
:108500006E4A516821F003010143516070476B4886
:10851000406800F00C007047684A516821F0F00193
:10852000014351607047654A516821F4E06101439D
:108530005160704761494A6822F4605242EAC000C3
:10854000486070475D4A0029517A01D0014300E03C
:108550008143517270475C49C1F8D8007047574A4F
:10856000516821F440410143516070475349002252
:1085700081F8202081F82020012802D0042802D18F
:10858000052081F8200070475049086070474B492A
:108590000A6A02430A6270474C49443908607047CE
:1085A00030B5464A51684A4B11F00C0103D00429FA
:1085B00003D0082903D0036016E0464913E0516850
:1085C000536801F470114FF0020413F4803F04EB80
:1085D000914104D053689B0303D53D4B02E03E4BD1
:1085E00000E03C4B5943016051680F2303EA11112D
:1085F0003A4B5C5C0168E14041605468072505EA3C
:1086000014241C5D21FA04F48460546805EAD4241F
:108610001B5DD940C1605268032303EA92322F4B9D
:108620001B1F9A5CB1FBF2F1016130BD234A0029A6
:10863000516901D0014300E08143516170471F4AF5
:108640000029916901D0014300E0814391617047A5
:108650001A4A0029D16901D0014300E08143D16168
:108660007047164A0029D16801D0014300E08143D8
:10867000D1607047114A0029116901D0014300E01F
:1086800081431161704711494039086070470E49B4
:10869000C86470470949C87170470848416A41F089
:1086A000807141627047054A0146002092680A4283
:1086B00000D00120704701498872704700100240C5
:1086C0000000FFF8FFFFF6FE000042428004424235
:1086D00000127A000024F40000093D00040000208C
:1086E000F94910B5884202D10121C41486E0B0F1E5
:1086F000804F09D0F54988420DD101210220FFF7B2
:10870000B9FF0021022064E001210846FFF7B2FF13
:10871000002101205DE0EE49884206D101210420BC
:10872000FFF7A8FF0021042053E0EA49884206D160
:1087300001210820FFF79EFF0021082049E0E649BB
:10874000884206D101211020FFF794FF002110205C
:108750003FE0E249884206D101212020FFF78AFF4D
:108760000021202035E0DE49884202D10121441455
:1087700044E0DC49884202D10121CC043EE0DA49E0
:10878000884202D101210C0538E0D849884202D143
:1087900001214C0532E0D649884206D10121402012
:1087A000FFF768FF0021402013E0D249884206D13C
:1087B00001218020FFF75EFF0021802009E0CE49E3
:1087C00088420AD1841501212046FFF753FF00217A
:1087D0002046BDE81040FFF74DBFC849884202D18E
:1087E00001210C040AE0C649884202D101214C044F
:1087F00004E0C44988420AD101218C042046FFF7D5
:1088000030FF2046BDE810400021FFF72ABF10BD11
:1088100030B50288AC4BB24C98420DD0A0420BD080
:10882000B0F1804F08D0A94DA84205D0A84DA8426C
:1088300002D0A84DA84203D122F070054A882A43ED
:10884000A54DA84206D0A54DA84203D022F44075FC
:10885000CA882A4302808A8882850A8802859842CB
:108860000AD0A04208D0A54A904205D0A44A90421E
:1088700002D0A44A904201D1097A01860121818265
:1088800030BD30B5028C22F001020284028C838854
:10889000048B22F0020224F073050C882C430D890E
:1088A00015434A882A43884DA8420BD08C4DA842D4
:1088B00008D0924DA84205D0914DA84202D0914DCA
:1088C000A8420DD122F008054A8923F440732A43B7
:1088D00022F004058A882A438D891D43CB892B43C6
:1088E00083800483C9888186028430BD70B5028C80
:1088F00022F010020284028C8488038B0D8823F4FA
:10890000E6464FF6FF7303EA052535430E8922F04C
:10891000200203EA061616434A8803EA021232438B
:10892000694EB04202D06E4EB04215D122F08006A0
:108930004A8924F4406403EA0212324322F04006DA
:108940008A8803EA021232438E8903EA86062643A6
:10895000CC8903EA8404344384800583C988018771
:10896000028470BD70B5028C22F480720284028C85
:108970008488838B0D8823F073031D4322F40073D6
:108980000E894FF6FF7202EA06261E434B8802EA62
:10899000032333434C4EB04202D0514EB04215D166
:1089A00023F400664B8924F4405402EA0323334342
:1089B00023F480668B8802EA032333438E8902EA1C
:1089C00006162643CC8902EA041434438480858346
:1089D000C9888187038470BD70B5028C22F48052EF
:1089E0000284048C8288838B0D8823F4E6464FF63C
:1089F000FF7303EA0525354324F400560C8903EA86
:108A0000043434434E8803EA063626432E4CA042F3
:108A100002D0334CA04205D122F480448A8903EA73
:108A20008212224382808583C988A0F84010068480
:108A300070BD828B22F440628283828B4FF6FF737B
:108A400003EA01210A4382837047828B22F00C02E1
:108A50008283828B0A4382837047028B22F44062B6
:108A60000283028B4FF6FF7303EA01210A4302835C
:108A70007047F0B5048C24F010040484078B048C38
:108A80004FF6FF7527F4734705EA03333B4305EAC6
:108A900002221A430C4B05EA011698420ED0104BE5
:108AA00098420BD0B0F1804F08D0084B984205D0C7
:108AB000074B984202D0074B984225D124F0200161
:108AC000314341F0100124E0002C0140000400403B
:108AD00000080040000C004000100040001400405E
:108AE00000340140004C014000500140005401405E
:108AF00000180040001C00400020004000400140E1
:108B0000004401400048014024F0A0030B4343F01F
:108B1000100102830184F0BD028B22F00C0202835B
:108B2000028B0A430283704770B5048C24F0010461
:108B30000484058B048C4FF6FF7606EA0313134377
:108B400025F0F305F94A2B4390420ED0F84A9042A3
:108B50000BD0B0F1804F08D0F64A904205D0F64ACB
:108B6000904202D0F54A904202D124F0020201E084
:108B700024F00A020A4342F001010383018470BD1C
:108B80002DE9F05F0D4604460888E84FDFF8A0C3E2
:108B9000DFF8A0834988AA882B894FF0804960B309
:108BA000042832D04FF6FF7E082836D0208C9B4612
:108BB00020F480502084A38B268C704600EA022289
:108BC00023F473431A4300EA0B3010430EEA013ECC
:108BD000BC420BD0644509D04C4507D0444505D074
:108BE000D54A944202D0D54B9C4245D126F400513F
:108BF00041EA0E0141F4805143E02046FFF794FF23
:108C0000E9882046BDE8F05F86E72046FFF731FFA0
:108C1000E9882046BDE8F05F1FE7208C20F48070D3
:108C20002084B4F81CA0208C0EEA031313432AF00E
:108C3000F30A0EEA012B43EA0A03BC420BD0644557
:108C400009D04C4507D0444505D0BB4A944202D0D8
:108C5000BA4A944204D120F4007040EA0B0002E0CA
:108C600020F42060084340F48070A3832084E988C6
:108C70002046BDE8F05FE8E626F402420A4342F4EB
:108C80008051A08320462184E988BDE8F05FD0E6CA
:108C90002DE9F0410C46002649880746012501B917
:108CA0000226A288012A00D10225208823890028D3
:108CB000384610D0FFF7DDFEE1883846FFF7CDFEDD
:108CC00023892A4631463846FFF72EFFE188384689
:108CD000BDE8F04120E7FFF727FFE1883846FFF7BE
:108CE0001BFF23892A4631463846FFF7C2FEE1883A
:108CF0003846BDE8F041B0E610B50A884B88CC880C
:108D00001A438B8823431A430B891A434B89898959
:108D10001A430A43A0F8442010BD4FF6FF7181802A
:108D200000210180C18041800172704700210180D3
:108D300041808180C180018141818181C1817047F1
:108D400000210180418001228280C1800181704721
:108D50000021018041808180C18001814181818128
:108D600070470029018802D041F0010101E021F0A3
:108D7000010101807047002930F8441F02D041F4FE
:108D8000004101E0C1F30E0101807047002A828991
:108D900001D00A4300E08A43828170478182704794
:108DA0001143A0F848107047002A828901D00A4375
:108DB00000E08A4382817047018921F00701018127
:108DC0007047028922F070020A430281704700B5A1
:108DD0000346FFF7F6FF188940F00700188100BD31
:108DE00070B516460D46602904464FF00102314623
:108DF0000AD0FFF799FE29462046FFF7E2FF2089B7
:108E000040F00700208170BDFFF733FEF3E730B577
:108E100004894FF6FF7505EA03231343E4B20B43BD
:108E20002343038130BD10B50446FFF7F0FF2089CE
:108E300040F07700208110BD10B50446FFF7E7FF32
:108E4000208940F48040208110BD018582827047D6
:108E5000028822F070020A430280704770B50589CB
:108E6000048B068C25F007050D434FF6FC410C40A2
:108E700040F201110C434FF6FF7101EA031126F095
:108E800022061143314305810483018470BD028BA6
:108E900022F070020A4302837047028B4FF6FF7381
:108EA00022F4E04203EA0121114301837047828BDF
:108EB00022F070020A4382837047828B4FF6FF7361
:108EC00022F4E04203EA0121114381837047002923
:108ED000018802D041F0800101E021F08001018091
:108EE00070470029818802D041F0040101E021F09F
:108EF0000401818070470029818802D041F0080177
:108F000001E021F00801818070470029818802D0AA
:108F100041F0010101E021F0010181807047028BE5
:108F200022F008020A43028370470000002C01402F
:108F3000003401400004004000080040000C0040E4
:108F4000028B4FF6FF7322F4006203EA0121114302
:108F50000183E9E7828B22F008020A438283E3E778
:108F6000828B4FF6FF7322F4006203EA0121114362
:108F70008183D9E7028B22F004020A430283D3E7FC
:108F8000028B4FF6FF7322F4806203EA0121114342
:108F90000183C9E7828B22F004020A438283C3E77C
:108FA000828B4FF6FF7322F4806203EA01211143A2
:108FB0008183B9E7028B22F080020A430283B3E780
:108FC000028B4FF6FF73C2F30E0203EA0121114335
:108FD0000183A9E7828B22F080020A438283A3E700
:108FE000828B4FF6FF73C2F30E0203EA0121114395
:108FF000818399E7028C22F002020A43028493E7FC
:10900000028C22F008020A4302848DE7028C4FF69C
:10901000FF7322F0200203EA01111143018483E768
:10902000028C4FF6FF7322F0800203EA0111114314
:10903000018479E7028C4FF6FF7322F4007203EA91
:109040000121114301846FE7028C4FF6FF7322F474
:10905000006203EA01211143018465E7028C4FF6A7
:10906000FF7322F4005203EA0131114301845BE7EC
:1090700010B50123048C8B409C430484038C8A40EC
:109080001343038410BD10B50423048C8B409C4310
:109090000484038C8A401343038410BD30B501243B
:1090A000058C00F118038C40A543058489B108297B
:1090B0000FD0091FC1F34E001844016821F4E041AC
:1090C000016001684FF6FF7303EA02221143016059
:1090D00030BD03EB5100016821F0700101600168AF
:1090E000F4E70029018802D041F0020101E021F0FB
:1090F0000201018018E70029018802D041F0040133
:1091000001E021F0040101800EE70029818802D0EE
:1091100041F0800101E021F08001818004E70288B4
:1091200022F00802028002880A430280FCE682885C
:1091300022F07002828082880A438280F4E60289EB
:1091400022F00702028102890A430281ECE60289C9
:1091500022F08002028102890A430281E4E68184CE
:10916000E2E68185E0E68186DEE60187DCE681874E
:10917000DAE6A0F84010D7E6028822F440720280B6
:1091800002880A430280CFE6808ECDE6008FCBE6D0
:10919000808FC9E6B0F84000C6E6808CC4E6008D3A
:1091A000C2E602460020128A0A4200D00120BBE635
:1091B000C9430182B8E602460020138A92890B4215
:1091C00002EA010202D0002A00D00120ACE6C94325
:1091D0000182A9E6C44910B588420AD101218C0355
:1091E0002046FFF73EFA2046BDE810400021FFF779
:1091F00038BABE49884202D101214C0410E0BC4972
:10920000884202D101218C040AE0BA49884202D185
:109210000121CC0404E0B84988420AD101210C059F
:109220002046FFF727FA2046BDE810400021FFF74F
:1092300021BA10BD30B50446008A85B00D464CF603
:10924000FF710840E98801432182A1894EF6F3109D
:109250000140A8882A8910436A890A431043A081E3
:10926000A08A4FF6FF410840A9890143A1826846C0
:10927000FFF796F99C48844201D1039800E00298D8
:10928000A189090400EBC00101EB0010296801D598
:10929000490000E08900B0FBF1F06422B0FBF2F17C
:1092A00009010B096FF018056B4300EB8300A389DC
:1092B0001D044FF0320306D503EBC000B0FBF2F003
:1092C00000F0070005E003EB0010B0FBF2F000F047
:1092D0000F000843208105B030BD4FF416510160E6
:1092E00000218180C18001810C22428181817047EF
:1092F00010B5038A4FF2FF0213400A884C882243BC
:109300008C88C9880C4322431A43028210BD002175
:10931000018041808180C18070470029818902D00D
:1093200041F4005101E021F400518181704710B5F2
:10933000C1F3421301F01F040121A140012B07D00A
:10934000022B07D01430002A026805D00A4304E03B
:109350000C30F8E71030F6E78A43026010BD002AAF
:10936000828A01D00A4300E08A4382827047028ADF
:1093700022F00F020282028A0A4302827047828927
:1093800022F40062828182890A4382817047002927
:10939000818902D041F0020101E021F002018181C6
:1093A0007047028A22F020020282028A0A43028265
:1093B00070470029018A02D041F4804101E021F484
:1093C000804101827047C1F3080181807047808825
:1093D000C0F308007047818941F001018181704725
:1093E000028BD2B20283028B42EA012101837047D1
:1093F000028B02F47F420283028B0A43028370478E
:109400000029818A02D041F0200101E021F02001F1
:10941000818270470029818A02D041F0100101E069
:1094200021F01001818270470029818A02D041F029
:10943000080101E021F0080181827047002981893B
:1094400002D041F4004101E0C1F30E018181704777
:109450000029818A02D041F4006101E021F4006119
:1094600081827047828A22F004028282828A0A43C1
:10947000828270470029818A02D041F0020101E016
:1094800021F00201818270470246002012880A42C0
:1094900000D001207047C9430180704730B501F00A
:1094A0001F0201240025C1F3421304FA02F2012B2A
:1094B0000FD0022B0FD0838A4FEA1121008813426C
:1094C00004FA01F400EA040001D000B101252846A5
:1094D00030BD8389F0E7038AEEE70A0A0121914053
:1094E000C94301807047000000380140004400403B
:1094F00000480040004C0040005000403749002028
:109500000860091D0860091D0860091D08603349CD
:10951000334814310860704730B5304983790268A8
:1095200053B30B6893430B600A1D13680468A3438D
:10953000136002790A441368046823431360274ABE
:10954000083213680468A3431360131D1C68056880
:10955000AC431C604479102C05D021440A68006893
:1095600002430A6030BD1168046821431160196824
:1095700000680143196030BD0079084401689143D7
:10958000016030BD0021016001710C2242718171C6
:109590007047124910310A6802430A607047014659
:1095A0000E4A0020143212680A4200D0012070478F
:1095B0000A49143108607047084A014600201268C1
:1095C000064B0A4014331B680B4202D0002A00D01D
:1095D00001207047014914310860704700040140C0
:1095E000FFFF0F00C54910B5884202D10121441583
:1095F0000AE0C349884202D10121041504E0C149AF
:1096000088420AD10121CC032046FFF72AF82046E0
:10961000BDE810400021FFF724B810BD10B5426826
:10962000B94B0C791A400B6842EA04221343436099
:109630008368B64A1340D1E9024222434C7943EA97
:1096400044031A438260C26A097C22F47002491EF4
:10965000C9B242EA0151C16210BD0021016001712D
:1096600041718160C16001210174704700298168E6
:1096700002D041F0010101E021F001018160704759
:109680000029816802D041F4807101E021F48071E9
:1096900081607047002A4268C9B201D00A4300E0E5
:1096A0008A4342607047816841F0080181607047D9
:1096B000014600208968090700D5012070478168AC
:1096C00041F0040181607047014600208968490724
:1096D00000D5012070470029816802D041F4A00123
:1096E00001E021F4A00181607047014600208968F3
:1096F000490200D5012070474268491E22F46042A9
:1097000042EA4131416070470029416802D041F48A
:10971000006101E021F400614160704770B50724E9
:1097200009290AD9C568A1F10A0606EB4606B44024
:10973000A543B3401D43C56007E0056901EB410641
:10974000B440A543B3401D4305611F23072A09D236
:10975000446B521E02EB820293409C4391400C43A7
:10976000446370BD0D2A09D2046BD21F02EB820242
:1097700093409C4391400C43046370BDC46A0D3A0E
:1097800002EB820293409C4391400C43C46270BD43
:109790000029816802D041F4801101E021F4801198
:1097A00081607047C06C80B2704754484C3000688C
:1097B00070470029416802D041F4806101E021F442
:1097C0008061416070470029416802D041F48051B6
:1097D00001E021F4805141607047826822F4E04248
:1097E0000A43826070470029816802D041F4004139
:1097F00001E021F40041816070470029816802D0B6
:1098000041F4021101E021F4021181607047014628
:1098100000208968890200D50120704770B50724AF
:1098200009290AD9C568A1F10A0606EB4606B44023
:10983000A543B3401D43C56007E0056901EB410640
:10984000B440A543B3401D430561836BC3F301548A
:10985000121B921C02EB82041F22A2409343A140E0
:109860000B43836370BD826B491E22F4401242EAAF
:1098700001518163704708B508440090026008BD3B
:1098800008B5084428300090006880B208BD4268DE
:109890001F4B1A400A434260704741628262704720
:1098A000426822F01F020A434260704713490831A0
:1098B0000028086802D040F4000001E020F4000015
:1098C000086070470246002012680A4200D001205A
:1098D0007047C9430160704710B5024600205468C4
:1098E0000B0AC9B20C401168194202D0002C00D0FA
:1098F000012010BD6FEA1121016070470024014072
:1099000000280140003C0140FFFEF0FFFDF7F1FFA1
:10991000FFFD3FFF01684FF6FE721140016000211C
:10992000016041608160C1606A496A4A08399042B9
:1099300003D1486840F00F0006E0664A14329042B6
:1099400004D1486840F0F00048607047614A28320E
:10995000904203D1486840F47060F5E75D4A3C32BC
:10996000904203D1486840F47040EDE7594A5032C4
:10997000904203D1486840F47020E5E7554A6432CC
:10998000904203D1486840F47000DDE7514A7832D4
:10999000904203D1486840F07060D5E74E4A111FED
:1099A000904203D1086840F00F0006E04A4A1432A2
:1099B000904204D1086840F0F00008607047464AC1
:1099C0002832904203D1086840F47060F5E7424ABB
:1099D0003C32904203D1086840F47040EDE73E4AC3
:1099E00050329042EAD1086840F47020E5E730B583
:1099F000036847F6F07293430C6A8A682243D1E900
:109A000004452C4322438C692243CC6922434C6A8F
:109A100022438C6A22431A430260CA6842600A6881
:109A200082604968C16030BD002101604160816091
:109A3000C160016141618161C16101624162816214
:109A400070470029016802D041F0010102E04FF6A1
:109A5000FE72114001607047002A026801D00A437B
:109A600000E08A430260704741607047406880B2FE
:109A7000704701460020CA0002D5174A083A01E0A3
:109A8000144A083A12680A4200D001207047C10007
:109A900003D51149091F086070470E49083948600D
:109AA000704701460020CA0002D50B4A083A01E07F
:109AB000084A083A12680A4200D001207047C100E3
:109AC00003D50549091F08607047024908394860F5
:109AD0007047000008000240080402400CB5002155
:109AE0004E4801910091026842F4803202604FF4C6
:109AF000A063026802F400320092019A521C0192A3
:109B0000009A12B9019A9A42F3D10268920333D5AE
:109B10000121009142490A6842F010020A600A6875
:109B200022F003020A600A6842F002020A604168F9
:109B3000416041684160416841F480614160416831
:109B400021F47C114160416841F4F81141600168E1
:109B500041F08071016001688901FCD5416821F004
:109B600003014160416841F0020141604168C1F375
:109B700081010229FAD10CBD00910CBD274810B516
:109B8000016841F0010101604168264A11404160CD
:109B90000168254A11400160016821F480210160BB
:109BA000416821F4FE0141604FF41F018160FFF71D
:109BB00095FF1E494FF00060086010BD174A10B5B0
:109BC00050681B4B10F00C011A4803D0042903D035
:109BD000082903D0036016E0174913E05168536861
:109BE00001F470114FF0020413F4803F04EB914133
:109BF00004D053689B0303D50D4B02E00F4B00E0EC
:109C00000D4B5943016051680A4AC1F30311121DFB
:109C1000515C0268CA40026010BD000000100240A2
:109C2000002002400000FFF8FFFFF6FE08ED00E014
:109C300000127A00140000200024F40000093D0006
:109C40000648804706480047FEE7FEE7FEE7FEE7D6
:109C5000FEE7FEE7FEE7FEE7FEE7FEE77D9B000886
:109C6000ED80000810B502F0ADFC00F009FA00200C
:109C700010BD00007047FEE7FEE7FEE7FEE7704715
:109C80007047704710B501F049F901F08FF8BDE851
:109C9000104001F0D5BA2DE9F041DFF8D8804FF43B
:109CA000906739464046FFF717FE01285CD1002235
:109CB00039464046FFF7EEFC2E4D3C35286880B211
:109CC00001F045FB2E1D306880B201F046FB28688C
:109CD00029493368B1F91621801A8003C21700EBB5
:109CE0005250C01200EB401000EB80004FF4E372C2
:109CF00090FBF2F000EB8000B1F91811591A8903BA
:109D0000CB1701EB5351C91201EB411101EB81015A
:109D100091FBF2F101EB810161F30F0460F31F4449
:109D2000164800F038F8154800F035F801280AD038
:109D3000124800F030F802280BD0104800F02BF841
:109D400003280AD00BE04CF25031204602F094F97F
:109D500005E0204602F0A1FB01E002F0E3FB012256
:109D600039464046FFF796FC39464046BDE8F0418B
:109D7000FFF7C0BD00240140E00100208800002062
:109D80007047002070470021017100600449816024
:109D90000449C16070470079704701717047000045
:109DA000839D0008819D0008012080F31388654889
:109DB0000168654A01F4E06111430160BFF34F8F10
:109DC000FEE72DE9F84F614C0025614E614FDFF849
:109DD000888104F1580147F6FF7A04F12C0904F157
:109DE000840B0091012854D0022850D1204601F064
:109DF00045FE322024F8040F02206080E583C4E988
:109E00000276A4F81280A4F810A00126A682E682A9
:109E1000268457464846643401F030FE24F8386CF6
:109E200024F8365C24F8245C24F8225C24F81A5CBC
:109E300024F8268C24F8287C24F8205C4FF00709AD
:109E400024F81E9C009801F019FE24F80C6C24F8EC
:109E50000A5C25816581A581A4F80E906582A4F82D
:109E60000680A780584601F009FE032020846584FF
:109E7000A586E586258706206087E5876FF04A007E
:109E800060864B2020863548E0623548A062BDE8F8
:109E9000F88F2E4801F0F2FD4FF4967024F8040F6D
:109EA00009206080E583C4E90276A4F81280A4F852
:109EB00010A0A582E58247462584D04648466434F2
:109EC00001F0DCFD012624F8386C24F8366C24F807
:109ED000245CDFF888A024F8225CDFF8849044E951
:109EE0000C9A24F81A5C24F8267C24F8288C24F890
:109EF000206C082024F81E0C009801F0BFFD24F807
:109F00000C6C24F80A6C25816581A6810820E0810B
:109F10006582E780A4F8048044E9019A584601F07C
:109F2000ADFD032020846584A586E5860420208776
:109F30006587E5876FF04A0060864B202086C4E97C
:109F40000A9AA4E70CED00E00400FA05E001002005
:109F50000000FBFFF6FF04000080FFFF0000CEFFC3
:109F60009CFF31000178252902D1007B262802D0F0
:109F70004FF0FF3070470120704700281FD0017C50
:109F8000D9B1092919D10278252A16D1017A2629B1
:109F900013D138490A7042788A708278CA70C278C0
:109FA0000A7102790A7242794A7282798A72C27996
:109FB000CA72027A0A7301224A730021017470473F
:109FC000002141734188C1F30331002901D800F019
:109FD00001B8704710B50446B0F9020003282AD032
:109FE00009DC01280FD0022842D12348FFF7D3FE15
:109FF00003280FD014E004282FD00F2838D1BDE853
:10A000001040FFF7D1BE1C48FFF7C5FE02282FD134
:10A01000032128E002211848FFF7BFFE02F080FA72
:10A0200020790128208900D0404201B2BDE81040CB
:10A03000124801F0A1BD1048FFF7ADFE032805D17D
:10A0400002210D48FFF7A9FE02F06AFA2089BDE857
:10A05000104001B2094801F0A2BD0748FFF79BFE7E
:10A06000002805D10121BDE810400348FFF795BE47
:10A0700010BD00009800002088000020E0010020B2
:10A0800010B517A000F0C4FC22A000F0C1FC2AA06B
:10A0900000F0BEFC31A000F0BBFC39A000F0B8FC21
:10A0A00040A000F0B5FC48A000F0B2FC474800F02A
:10A0B000AFFC474800F0ACFC464800F0A9FC46481D
:10A0C00000F0A6FC454800F0A3FC45A000F0A0FC71
:10A0D00051A000F09DFCBDE8104055A000F098BCD8
:10A0E000200D0A203D3D3D3D3D3D3D3D3D3D3D3D3D
:10A0F0003D3D20504D534D2056657273696F6E2063
:10A10000302E3031203D3D3D3D3D3D3D3D3D3D3DD1
:10A110003D3D3D000D0A2020202020205F5F5F5F35
:10A1200020205F5F20205F5F5F5F5F5F5F5F205F7A
:10A130005F20205F5F5F09000D0A092020202F208B
:10A140005F5F205C2F20207C2F20202F205F5F5F0F
:10A150002F2F20207C2F20202F0900000D0A0920FE
:10A16000202F202F5F2F202F202F7C5F2F202F5C70
:10A170005F5F205C2F202F7C5F2F202F09000000C5
:10A180000D0A09202F205F5F5F5F2F202F20202FD7
:10A19000202F5F5F5F2F202F202F20202F202F09BF
:10A1A000000000000D0A092F5F2F2020202F5F2FB5
:10A1B00020202F5F2F2F5F5F5F5F2F5F2F20202FCB
:10A1C0005F2F0909000000000D0A0000DCD800081C
:10A1D00020D9000880D80008C8D7000824D8000873
:10A1E0000D0A202020202020202020202020202098
:10A1F000202020202F5F5F5F5F2F20202020202045
:10A20000202020202020202020202020202020204E
:10A210002F5F5F5F5F2F0000200D0A20686F6E6761
:10A220007368656E67656C652E636F6D0000000076
:10A23000200D0A203D3D3D3D3D3D3D3D3D3D3D3DEB
:10A240003D3D3D3D3D3D3D3D3D3D3D3D3D3D3D3D3E
:10A250003D3D3D3D3D3D3D3D3D3D3D3D3D3D3D3D2E
:10A260003D3D3D00012140F60D00FEF7E8B9704785
:10A2700008B54FF4E060ADF8000018208DF8030039
:10A2800003208DF8020069466C48FDF7E8FF4FF4A3
:10A290006040ADF8000069466948FDF7E0FF08BD81
:10A2A0002DE9F043674A64218BB0B2FBF1F7B2FBB2
:10A2B000F1F8B2FBF1F6002440F60F63ADF8204050
:10A2C0002020DFF88491ADF82200ADF8243001257C
:10A2D000ADF826408DF8285008A94846FEF798FAB0
:10A2E00020214846FEF723FF01214846FEF760FF84
:10A2F000012211464846FEF749FD6020ADF80000F6
:10A300000420ADF80400ADF80840ADF80C40ADF8FD
:10A310000250ADF80670ADF80A40ADF80E4069463F
:10A320004846FEF7AEFAADF8068069464846FEF7A5
:10A33000DDFAADF8066069464846FEF713FB70206B
:10A34000ADF80000ADF8044040F6FB50ADF8060053
:10A350000820ADF80840ADF80A00ADF80C40014601
:10A36000ADF80250ADF80E404846FEF7D8FD082182
:10A370004846FEF7E5FD08214846FEF7EBFDE802FA
:10A38000ADF810004010ADF81200ADF814400320F5
:10A39000ADF81600ADF81840ADF81A40ADF81C4005
:10A3A00004A94846FEF7A8FC01214846FEF7ADFD8A
:10A3B00001214846FEF7D5FC01214846FEF7DBFCAB
:10A3C0000BB0BDE8F08310B5FFF74CFFFFF750FF6F
:10A3D000BDE8104064E71C482C30008840007047FE
:10A3E00019482C300088C42148436421B0FBF1F0A7
:10A3F00080B2704700B50246002905DCFFF7EBFF8D
:10A4000000EBD07040F34F01012A07D0022A08D098
:10A41000032A02D10C483C30018000BD0A48343088
:10A42000FAE709483830F7E700210748FEF7A3BCF0
:10A4300001210548FEF79FBC6220704700080140DB
:10A44000000C0140BCBE0200002C0140FFF7BBBF66
:10A4500003888B4200D901800188914200D202809A
:10A46000704710B59C010298034494FBF3F48001FB
:10A4700090FBF3F00C60106010BD10B5B0F908103F
:10A4800046F6D9625143B0F90A20920311D49142A1
:10A4900001DD01231FE0002901DB0B4600E04B42F8
:10A4A000934201DA022316E04B42934214DD032368
:10A4B00011E0914201DA04230DE0002901DB0B4693
:10A4C00000E04B425442A34201DA052303E04B4231
:10A4D000934201DA06234360C0E9061210BD2DE95C
:10A4E000F043B0F9083046F6D9646343DC1703EB58
:10A4F00094439C13B0F90A30C68A1D1905EBD57533
:10A500006F101D1B05EBD5756D10002B02DD4FF094
:10A51000010C01E04FF0000CE1469C4202DD4FF0DF
:10A52000010C01E04FF0000C644298469C4201DDB2
:10A53000012400E00024A40004EB4C0C0CEB090403
:10A540004460072C18D2DFE804F01704070B0E1242
:10A55000150029463A460FE03946C8F100020BE0E3
:10A560006942424608E0C8F100012A4604E041463B
:10A570007A4201E079426A428D1805FB06F3C6F380
:10A580008D07B3EBC63F11DD7143724391FBF5F1CB
:10A5900092FBF5F28B18DD1703EBD533CD17A7EB44
:10A5A000634301EB154103EB21410BE0DD1703EBA6
:10A5B000D5337143CD17A7EB634301EB154103EB93
:10A5C00021417243D51702EB154201EB2242002BC9
:10A5D00000DC0023002900DC0021002A00DC00222E
:10A5E000072C0ED2DFE804F00D04070A0F12160044
:10A5F000C181038204E0C381028209E0C381018238
:10A600004282BDE8F083C281018205E0C2810382FB
:10A610004182F6E7C18102824382F2E7FEB5054638
:10A62000C48AB0F9080046F6D9614843C11700EB67
:10A630009140B5F90A208613B5F90010B31803EB61
:10A64000D3735B1092FBF1F093FBF1F3971B07EBD5
:10A65000D7777F1097FBF1F1002A02DB4FF0010C56
:10A6600001E04FF0000C964201DB012700E00027DB
:10A670007642964201DB012200E00022920002EBCA
:10A6800047026244072A7DD2DFE802F07C9C04EF97
:10A69000D5EE4F0001216960C11A6143CE17220136
:10A6A00001EB565102EBE12100290CDD6343DA177F
:10A6B00003EB92526043C31701EBA22200EB9350CD
:10A6C000A2EBA0201BE04042009002AA01A9204674
:10A6D000FFF7C7FEDDE9012011186143EB8ACE17B1
:10A6E0001B01624301EB9671A3EBA10102EBD27255
:10A6F000604301EB620200EBD07002EB60003F2987
:10A7000079DDCB1701EB93618911E9813F2873DD76
:10A71000C11700EB9160801128823F2A6DDDD017B0
:10A7200002EB90604CE0688239E1022068605818C2
:10A730006043C617220100EB565002EBE0200028D0
:10A740000CDD6343DA1703EB92526143CB17A0EBA6
:10A75000A22201EB9351A2EBA1211EE048420090FE
:10A760005B4202AA01A92046FFF77BFEDDE9012139
:10A77000EB8A501860431B01C61700EB9670A3EBE1
:10A78000A00000E009E1624302EBD272614300EBFA
:10A79000620201EBD17102EB61013F2A7EDDD3172A
:10A7A00002EB93629211EA813F2978DDCA1701EB2F
:10A7B0009261891129823F28B0DDC11700EB9160B9
:10A7C0008011B0E703206860C8186043C6172201F3
:10A7D00000EB5650A2EBE02000280FDD6143CA17C2
:10A7E00001EB92516343DA1700EBA12103EB925284
:10A7F00001EBA22283E759E05AE0CCE000930B463C
:10A8000002AA01A92046FFF72CFEDDE901128818F3
:10A810006043EB8AC6171B01614300EB9670A3EB04
:10A82000A00001EBD171624300EB610102EBD27237
:10A8300001EB620263E704226A60421A6243D617A0
:10A84000230102EB565203EBE222002A0EDD6043A5
:10A85000C31700EB93506143CB17A2EBA02001EB91
:10A86000935100EBA1214AE75EE023E043420091CF
:10A8700002AA01A92046FFF7F4FDDDE90101421813
:10A880006243EB8AD6171B0102EB96726043A3EB7F
:10A89000A20200EBD07002EB600001E040E041E07A
:10A8A000614301EBD17100EB610128E700212CE746
:10A8B000002031E705226A600A1A6243D617230195
:10A8C00002EB565203EBE222002A0CDD6143CB1768
:10A8D00001EB93516043C317A2EBA12100EB93500E
:10A8E00001EBA02059E74B42009002AA01A92046A3
:10A8F000FFF7B7FDDDE901100A186243EB8AD617AE
:10A900001B01614302EB9672A3EBA20201EBD17132
:10A91000604302EB610100EBD07001EB60003CE7AB
:10A92000002240E7002145E706216960191A6143CA
:10A93000CE17220101EB565102EBE12100290CDD7B
:10A940006043C21700EB92506343DA1701EBA0207B
:10A9500003EB9252A0EBA2221FE75942034600915B
:10A9600002AA01A92046FFF77CFDDDE9010281185A
:10A970006143EB8ACE171B01604301EB9671A3EB99
:10A98000A10100EBD070624301EB600002EBD272D8
:10A9900000EB620201E70020C5E600206860FFF7D7
:10A9A0001FFD04460146012205F10E00FFF750FD90
:10A9B0000122214605F11000FFF74AFD0122214640
:10A9C00005F11200FFF744FDFEBD10B50446B0F9D5
:10A9D00012100120FFF70EFDB4F90E100220FFF750
:10A9E00009FDB4F91010BDE810400320FFF702BDC7
:10A9F0000146834802885206FCD5FEF7E4BC10B538
:10AA00007F4801888906FCD5FEF7E1FCC0B210BD85
:10AA10000FB4802130B5A1B00024684601F034FEA7
:10AA200025AA6846249902F0E9F86D4604E000BFC3
:10AA3000FFF7DEFF641CE4B2285D08B1802CF7D379
:10AA40000020FFF7D5FF21B0002030BC5DF814FBDB
:10AA500010B5FFF7D4FFBDE81040C9E730B50121BC
:10AA60008BB00846FDF7E2FD01210920FDF7E7FD67
:10AA700001218804FDF7ECFD18208DF803004FF448
:10AA80008060ADF800005F4D03248DF802406946F8
:10AA90002846FDF7E4FB04208DF803004002ADF8E2
:10AAA000000069462846FDF7DAFB27208DF80000F4
:10AAB0008DF801408DF8024001208DF803006846B2
:10AAC000FDF723FB50484FF4E131002401608480FE
:10AAD000C480048184810C214181494D014628466E
:10AAE000FEF7A8FB012240F224412846FEF71FFC96
:10AAF00001212846FEF711FC012240212846FEF7DD
:10AB00002EFC424D2846FEF705FF3D486946001DD4
:10AB100000903D483038CDE901041020CDE9030410
:10AB20008020CDE905042020CDE907404FF44050B6
:10AB3000CDE909042846FEF75AFF012202212846E2
:10AB4000FEF78AFF012208212846FEF785FF0BB099
:10AB50002846BDE830400121FEF773BFC0E9062159
:10AB6000704710B54FF400742046FEF79AFF012895
:10AB700004D12046BDE81040FEF7A1BF10BD70B55E
:10AB80001F4E40F2244529463046FEF787FC10B39D
:10AB900000243046FEF71BFC1C48FEF767FF1A4AEC
:10ABA000C0F11000203AA2F11001507406E0085CD8
:10ABB0001055907C401C641C9074E4B2507C00F0F2
:10ABC0000F03907C00F00F008342F0D11474D16920
:10ABD00009B19069884729463046BDE87040FEF7C4
:10ABE0007CBC70B5064D0446C1B22846FEF7EBFBAF
:10ABF00040212846FEF748FC0028F9D0204670BDC9
:10AC000000480040000C0140D80000203000024005
:10AC100001617047C162704781627047416270474D
:10AC20000162704741617047C160704701727047AF
:10AC300041607047E0E80212022100F8041B002185
:10AC400040F80C1B052140F8041C00218160C16004
:10AC500001611D494161096840F8081C114600F076
:10AC6000A6B9E0E80212022100F8041B002140F816
:10AC70000C1B052140F8041C00218160C1600161AA
:10AC800011494161096840F8081C114600F08FB96C
:10AC9000C0E9061270474172704740687047007AF9
:10ACA0007047D1E90621C0E900217047407A70471A
:10ACB00040697047C0687047006A7047406A7047D3
:10ACC000806A7047C06A70472C00002003207047DC
:10ACD0000020704710B50020434C0322014600BFFE
:10ACE000B0FBF2F302FB130303EB430304EB031388
:10ACF000401C5972C0B219619042F1D33B480160C7
:10AD000010BD002010B5384A03210346B0FBF1F412
:10AD100001FB140404EB440402EB0414647A012CD8
:10AD200008D1B0FBF1F401FB140404EB440402EB82
:10AD300004146372401CC0B28842E7D310BD70B5E2
:10AD400000200322284C0125B0FBF2F102FB110187
:10AD500001EB410104EB0111D1E904631E44CB6A0C
:10AD60001B689E4201D20B614D72401CC0B29042E2
:10AD7000EAD370BD2DE9F04100241B4F0326A04605
:10AD8000B4FBF6F006FB104000EB400007EB0015AB
:10AD9000687A012804D1686A10B1804785F8098073
:10ADA000641CE4B2B442EBD3BDE8F0810F4800F07C
:10ADB000D6B890F8C4131422491CB1FBF2F302FB7D
:10ADC000131190F8C503814201D101207047002082
:10ADD000704790F8C41390F8C503814201D1012057
:10ADE0007047002070470000E80000202C00002081
:10ADF00010B500F07DF9554908605549016310BD53
:10AE00002DE9FF5F524EDDE911B9DDF840A04F4F4B
:10AE100080460D0003D139683068496B45182846D3
:10AE200000F070F904462A464146001DFFF719FF5D
:10AE3000201D0299FFF7FAFE201D0399FFF72BFF53
:10AE4000201D0F99FFF7F0FE201D0E99FFF7EAFE77
:10AE50005146201DFFF7E4FE5946201DFFF7DEFE98
:10AE60004946201DFFF7D8FE3949201DFFF7D2FEC5
:10AE7000201D3168FFF7CCFE294604F11C0000F0CC
:10AE800096F8386804B02146BDE8F05F00F052B98A
:10AE9000F0B585B00AAC0DF1040C94E8E000002494
:10AEA0008CE8D00000950494FFF7AAFF05B0F0BD30
:10AEB000F0B585B00AAC94E8E0000024CDE9014685
:10AEC0000095CDE90347FFF79BFFEFE71F4810B55B
:10AED0000068416B002907D0046803E0606A00B194
:10AEE00080472468002CF9D110BD70B51748006860
:10AEF000416B002911D0002604680CE0607B251D01
:10AF0000012807D1686A00B18047A96A09B12846BB
:10AF100088476E722468002CF0D170BD0B4810B5C4
:10AF20000068416B00290FD0006801230AE0011D71
:10AF3000D1E904421444026B1268944201D20A61BE
:10AF40004B7200680028F2D110BD000028000020DC
:10AF50002C00002000F07CB90021016070470168DE
:10AF6000491C01607047006870470160704700002D
:10AF70000A210170002280F8552080F854201146E3
:10AF800000EBC103491C9A600A29F9DB7047574856
:10AF90007047002280F8552080F854204FEA0201C3
:10AFA00000EBC103491C9A600A29F9DB70470022B3
:10AFB000C0E90012704790F855100278491CB1FBA7
:10AFC000F2F302FB131190F85400814201D10120E9
:10AFD00070470020704710F8541F4078814201D11B
:10AFE000012070470020704730B50D460446FFF73A
:10AFF000E2FF012811D094F855002178B0FBF1F25E
:10B0000001FB1201401C84F85500D5E9000204EB55
:10B01000C101C1E90102012030BD4FF0FF3030BD58
:10B0200010B50B460246FFF7D6FF012811D092F863
:10B0300054001178B0FBF1F401FB140102EBC101E3
:10B04000401C82F85400D1E90101C3E9000101204C
:10B0500010BD4FF0FF3010BD70B5054614460E46CA
:10B060000846FFF7A8FF012806D021463046256094
:10B07000FFF7BAFF012070BD4FF0FF3070BD7CB507
:10B08000054614460E460846FFF795FF012807D0EF
:10B09000CDE9005469463046FFF7A6FF01207CBD8C
:10B0A0004FF0FF307CBDF0B504460B460846FFF775
:10B0B00092FF00214D1E012811D093F854001E78F4
:10B0C000B0FBF6F706FB170003EBC0004068A04298
:10B0D00008D111461846FFF7A3FF0120F0BD5160CB
:10B0E000116000E051602846F0BD000078010020AA
:10B0F00010B5382002F02AFA002802D000210160A1
:10B10000416310BD10B50446382002F01FFA00213B
:10B110004463016010BD18B1426B521C426303E0EE
:10B120004FF0FF30704710460268002AFBD10160E3
:10B130000120704738B1426B521C426302680A60BA
:10B140000160012070474FF0FF30704730B5002399
:10B150005D1E10B1446B944201D2284630BD641C80
:10B16000446300E000681C465B1CDBB29442F9D3E8
:10B1700002680A600160012030BD10B518B102F00C
:10B18000BDF9012010BD4FF0FF3010BD10B50021FA
:10B190004B1E20B1426B12B1521E426303E01846AF
:10B1A00010BD014610460268002AFAD10A60FFF776
:10B1B000E4FF012010BD10B54FF0FF3258B1416BD4
:10B1C00049B1491E416301680A6802600846FFF7F9
:10B1D000D4FF012010BD104610BD10B50022541E32
:10B1E00010B1436B8B4201D2204610BD5B1E4363FE
:10B1F00000E000681346521C92B28B42F9D30168FA
:10B200000A6802600846FFF7B8FF012010BD10B5BC
:10B21000040006D1401E10BD214604460846FFF733
:10B22000ACFF20680028F7D1012010BD406B7047AB
:10B2300001B514480099016001680029FCD108BDDE
:10B2400010480168002902D00168491E016070475A
:10B250000D484FF47A710068B0FBF1F0B0F1807FD7
:10B260000ED220F07F414FF0E020491E4161074A95
:10B27000F02182F8141D00218161072101617047CE
:10B28000FEE7000030000020140000200FE000E086
:10B2900010B5664C0146072301222046FEF73EFA10
:10B2A00001212046FEF717FA204601688907FCD5E0
:10B2B000BDE81040FEF776BA38B54FF40040FDF710
:10B2C0004EF901214FF40170FDF7B9F90F20ADF8E7
:10B2D000000000248DF8034069465548FCF7BFFF85
:10B2E00012208DF800008DF801408DF802400120F9
:10B2F0008DF803006846FCF708FFBDE8384000F011
:10B3000042B80020C4E770B50546002405E000BF40
:10B31000FFF7F7FF761C044476B2AE42F8DBB4FBCD
:10B32000F5F080B270BD0120B2E770B50025064689
:10B330002C4604E0FFF7F7FF641C054464B2B442F6
:10B34000F8DBB5FBF6F080B270BD002070473949DC
:10B3500008807047374800887047364948807047F2
:10B360003448408870473348B0F90400704731488A
:10B37000B0F9060070472F48B0F9080070472D4813
:10B38000B0F90A00704710B5284C86B02046FEF789
:10B3900029F9012000218DF804008DF805004FF4F3
:10B3A0006020CDE9020100918DF8101002212046A5
:10B3B000FEF759FA0023012219462046FEF72EFA1D
:10B3C0000023022201212046FEF728FA0021204610
:10B3D000FEF703FA01212046FEF705FA0121204677
:10B3E000FEF7D6F901224FF490612046FEF752F99C
:10B3F00069462046FEF712F901212046FEF736F98C
:10B400002046FEF750F92046FEF752F90028FAD1FF
:10B410002046FEF754F92046FEF756F90028FAD1E7
:10B4200001212046FEF757F906B010BD0024014067
:10B43000000801403400002001215248FCF769BF98
:10B4400002215048FCF765BF04214E48FCF761BF5C
:10B450003EB501210920FDF7F2F80720ADF8000004
:10B4600004208DF8030003248DF802406946454806
:10B47000FCF7F5FE00210120FCF7A9FF00208DF864
:10B480000800082001258DF80900019501A8FEF7A4
:10B4900043F806208DF800008DF8014002208DF859
:10B4A00002008DF803506846FCF72FFE3EBD70B5D4
:10B4B000FFF7C2FF0446FFF7C3FF0546FFF7C4FFCF
:10B4C000800000EB45002044C0B270BD70B5FFF7AE
:10B4D000B3FF0546FFF7B4FF0446FFF7B5FF810051
:10B4E00001EB4401481940B207280ED2DFE800F012
:10B4F0000D0406080D0A0C00022006E0062004E0F8
:10B50000012002E0032000E00520C0B270BD70B54C
:10B51000FFF792FF0546FFF793FF0446FFF794FFFE
:10B52000810001EB4401481940B207280AD2DFE844
:10B5300000F00904090609090800062002E00120BC
:10B5400000E00320C0B270BD0F494860704710B5DD
:10B550000120FEF731F801280FD10B4C207801288B
:10B560000BD1FFF769FF012807D1FFF769FF012819
:10B5700003D1FFF769FF00B96068BDE81040012002
:10B58000FEF728B8000C01404000002038B5C0206C
:10B59000ADF8000004208DF80300D44D03248DF88D
:10B5A000024069462846FCF75AFE3020ADF80000FC
:10B5B00048208DF803008DF8024069462846FCF7C4
:10B5C0004EFE38BD10B501210846FDF738F80121BF
:10B5D0000220FDF73DF80121BDE810400420FDF7F1
:10B5E0002EB810B586B040F66F00ADF8040000200C
:10B5F000ADF80200BE4CADF80000ADF8060069469B
:10B600002046FDF705F90A231A4603212046FDF7D7
:10B6100025FC01212046FDF7CBFD012211462046E5
:10B62000FDF7B4FB00212046FDF799FD03A9204654
:10B63000FDF7A6FA01212046FDF793FB06B010BDE9
:10B640003EB51D208DF8000002208DF80100012478
:10B650008DF802408DF803406846FCF756FD052141
:10B660000020FCF7B4FE2020019000208DF8080097
:10B6700008208DF8090001A8FDF74EFF17208DF86E
:10B6800000008DF801408DF802408DF803406846B7
:10B69000FCF73BFD3EBD10B5FFF794FFFFF776FFCB
:10B6A000FFF7CEFFBDE810409BE791480088C00639
:10B6B00001D5002070470120704710B58C48FDF778
:10B6C0006CFD8C4948434000C11700EB1140001449
:10B6D00010BD10B58648FDF760FD864949424843D4
:10B6E000C11700EB1140001410BD00218048FDF788
:10B6F00036BD00217E48FDF732BDC00340F22C610B
:10B7000090FBF1F000B2704700217948FDF727BDAA
:10B7100079490870704778480178012901D00020E4
:10B720007047002101700120704700217048FDF72B
:10B7300016BD002070477048B0F9040070476C488F
:10B740002430B0F9000070472DE9F0416A4C684898
:10B7500000216278243082B161700022C4E90422A1
:10B760006181B0F90050628912B1B0F90050618175
:10B770002581208A00B2BDE8F0816289038866894C
:10B7800007886181B0F90050B4F80AC0BCF1000F1D
:10B7900002D0B0F900506181B24201D03B4632463E
:10B7A00053480088C006B4F90800A3EB000002D596
:10B7B000A2EB021101E0C2EB021101EBC10100EBAF
:10B7C00001100146E0604FF4FA7041430A26A1FBE4
:10B7D0000607CA1702FB0672002301FB03214FF480
:10B7E000076200F019FFC4E90401C1E770B5002445
:10B7F0002246022912D2002070BD531C0BE000BF6C
:10B8000030F9126030F91350AE4203DD20F81360B6
:10B8100020F812505B1C8B42F2DB521C8A42ECDB9C
:10B8200001224B1E04E000BF30F91250521C2C4480
:10B830009A42F9DB891E94FBF1F000B270BD10B59D
:10B84000FFF782FF2C4A07239178B1FBF3F403FB47
:10B8500014132A4C491C24F8130091702046BDE8AB
:10B8600010400721C2E7244AD38821492431002B04
:10B870000988D388C3EB031303EBC30302D001EBA6
:10B88000031101E0C1EB031147F6FF73994201DB9D
:10B89000038000E001801A4B994201DC038000E044
:10B8A00001800020D080704770471149103108880E
:10B8B000C00708D01048C3884FF6FF72934201D2E8
:10B8C000C288521CC280088820F00100088070479E
:10B8D00010B52020FDF770FE012801D1064908703F
:10B8E000BDE810402020FDF775BE000000080140B3
:10B8F00000040040C6A8E1FF48000020D00100205D
:10B900000080FFFF01B244F6E61361F30F0200145A
:10B9100059435843014408444042C11700EB514089
:10B92000C013544BB0F5004F01DB590C03E019462E
:10B93000884200DB01B2104661F31F40994203D1F7
:10B9400048F2010161F31F40704710B500F5004156
:10B95000890911F44074C0F387124749C2F1FF030B
:10B9600016D0B4F5807F1CD0B4F5007F09D0B4F5B3
:10B97000407F1FD131F8133031F8121063F31F40AC
:10B980000DE031F8122031F8131062F31F400FE080
:10B9900031F8122031F81310524262F31F4049422D
:10B9A00006E031F8133031F812105B4263F31F40A8
:10B9B00061F30F0010BDF0B505460846FFF7C5FF5F
:10B9C00001462EB20FFA80FC06FB0CF02D140F146A
:10B9D00005FB1700C11700EB5140C3134FF40040A3
:10B9E000411E4242834201DB0B4604E0934201DAEE
:10B9F000134600E01BB2DFF87CE063F30F040EF1A6
:10BA0000010E934201D16EF30F047E4305FB0C63DC
:10BA1000DD1703EB5543DB13834204DA934201DA6B
:10BA2000114600E019B2204661F31F40914201D156
:10BA30006EF31F40F0BD60B505460846FFF785FF71
:10BA40002BB206B2291403FB06F2051401FB0520F4
:10BA5000C21700EB5240C213204662F30F0003FBF3
:10BA600005F27143891ACA1701EB5241C91361F3F8
:10BA70001F4060BD0080FFFFC6D50008018881809F
:10BA80004188C180018C41840021816081627047BE
:10BA900081807047C1807047B0F904007047B0F9E9
:10BAA00006007047B0F900007047B0F90200704717
:10BAB00081607047008B7047012281838A40028336
:10BAC0007047408B704701617047C1607047012229
:10BAD0008A40C1834283C2EBC231C160A2EBC23152
:10BAE00001617047C18270478182704781627047EF
:10BAF00041847047B0F922007047808C7047F0B5E0
:10BB0000B0F904200026B0F91450B0F91640B0F98D
:10BB100006304A4353B187684B43F91808D5002FC4
:10BB20000BDD002B09DD6FF0004106E000210DE088
:10BB3000002F02DA002B00DA0E49C3688B4202DBC9
:10BB400003698B4202DD1946836000E08160837FD8
:10BB5000077F41FA03F33A411A44AA4202DDAE1AC2
:10BB60002A4603E0A24201DAA61A22463144816045
:10BB700010B2F0BD01000080A0F81E114B2902DDBB
:10BB80004B21A0F81E11B0F91E216FF04A018A4224
:10BB900001DAA0F81E117047B0F91E01704740F697
:10BBA0003402A0F82011914201DDA0F82021B0F963
:10BBB00020216FF031018A4201DAA0F8201170478C
:10BBC000B0F9200170472DE9F041D24BB3F90020C4
:10BBD000541C1C808A4244DACF49074601F1800593
:10BBE000C1F8C800FFF769FDCB4CB4F81C1108443C
:10BBF000A4F80601384604F58374FFF783FE6864F1
:10BC000034F94A19FFF7D7FE2864B4F90000B4F9F3
:10BC10000410B4F90270411ABF482C30FFF76FFFCF
:10BC20008046B4F90600391ABB485830FFF767FF61
:10BC3000014668F30F06304661F31F40B4F94A101D
:10BC4000FFF7F9FE2865A08A2085E08A6085B24862
:10BC5000DC300446FEF7E2FC2046BDE8F041FEF78A
:10BC6000B4BEBDE8F0812DE9F0410446B0F8BC0057
:10BC7000A4F8CC00B4F8BE0016460F460025A4F880
:10BC8000CE0004F1DC08002154F8CC0FFFF7D3FEFE
:10BC90002083001460834046CC3CFEF7BFFC404646
:10BCA000FEF793FE0EB10120B04728466D1CADB2E1
:10BCB000B842E8D9FFF701FDA4F80801FFF715FD28
:10BCC000FFF7FBFCA4F82201CBE72DE9F05F044667
:10BCD000B0F8BC00A4F8CC000026B4F9BE00914630
:10BCE0008B463546A4F8CE00002802DD6FF03F00F9
:10BCF00000E040208046052704F1DC0A1DE000BF7B
:10BD000006EB080001B20E4654F8CC0FFFF793FE85
:10BD10002083001460835046CC3CFEF77FFC5046E5
:10BD2000FEF753FEB9F1000F02D0012049468847C3
:10BD300028466D1CADB2584503D8FFF7B8FBB84292
:10BD4000DED1FFF7BAFCA4F80801FFF7CEFCFFF73D
:10BD5000B4FCA4F82201BDE8F09F10B50446FFF73B
:10BD6000F9FA618A401A6081FFF7FAFAA18A401A4B
:10BD7000A081FFF7ABFB208110BD70472DE9F74F85
:10BD800084B0002604460096B0F9CE0092463546AF
:10BD9000002802DD6FF03F0000E0402080464FF0B9
:10BDA000000904F1DC004FF0050B4F46029002E061
:10BDB000B9F1000F08D1FFF77AFB584504D14FF0D5
:10BDC0000109FFF77AFC01903FB9FFF7A4FC0128B5
:10BDD00003D10127FFF771FC009006EB080001B2C8
:10BDE0000E4654F8CC0FFFF726FE20830014608324
:10BDF000CC3C0298FEF712FC0298FEF7E6FDBAF181
:10BE0000000F02D001205146884728466D1C059935
:10BE1000ADB2884204D8012FCAD1B9F1010FC7D100
:10BE2000DDE90010401AA4F8080107B0BDE8F08F62
:10BE30002DE9F05F8A46B0F9CE104FF00009904628
:10BE400004464D4600F1DC0B002902DD6FF03F0691
:10BE500000E0402605271CE009EB060001B28946F8
:10BE600054F8CC0FFFF7E7FD208300146083584699
:10BE7000CC3CFEF7D3FB5846FEF7A7FDB8F1000F08
:10BE800002D001204146884728466D1CADB250457E
:10BE900003D8FFF70CFBB842DED10025FFF74FFCBB
:10BEA0000020FFF735FC0020A4F8220121E000BFAC
:10BEB000B4F82201304401B2A4F82211D4F8CC0025
:10BEC000E434FFF7B8FD24F8020B001424F8E60967
:10BED0005846FEF7A3FB5846FEF777FDB8F1000F72
:10BEE00002D001204146884728466D1CADB250451E
:10BEF00003D8FFF710FC0128DAD1FFF720FC002857
:10BF000000DA404200B2A4F81C01FFF7F6FBA4F8E7
:10BF1000080120E760000020E0010020FEB5044693
:10BF20000026406801AAFB49FFF7BDF8012808D1A7
:10BF300002980090D4E90023E06A0168F6A000F0BE
:10BF40004DFEFE48FDF727FFFD4D06281BD0FFF7ED
:10BF500076FCA5F80A01FB48407B10B1F948FEF7D2
:10BF60002FF8F648FDF717FF012801D000F0DCFAA2
:10BF7000FFF7CDFAF44D07282FD2DFE800F02E238B
:10BF80002527292B2D0046F2A81025F8CC0FEC4CC4
:10BF9000002068808034B5F95610E06CFFF74BFD47
:10BFA0002065A8882883E888688304F15C0004463B
:10BFB000FEF734FB2046FEF708FDFFF778FAA5F8F8
:10BFC0004000FEBD2E8808E06E8806E0AE8804E0E2
:10BFD000EE8802E02E8900E06E89DC480088324657
:10BFE00000EB80004100DAA0FEF712FDE88904F1C1
:10BFF0001802401CE881D8A0E061C6490320FFF781
:10C000002BF8FEBD10B50221CC48FDF7C6FEFFF7A8
:10C010006CFBCB4C002024F8BC0F4FF4FA7001F0FD
:10C02000CBFA608010BD10B5C448FDF7ACFEFEF73A
:10C030000DFA0120FDF7C5FE00F090FAFFF72BFB8B
:10C04000FFF757FBFFF738F9FFF702FA0021AFF2CD
:10C050004B00BDE81040FFF777BA0EB5AFF24312C0
:10C06000AFF23D0102208DE80700024600230121C6
:10C07000C3A0FEF71DFF0EBD2DE9F0410F4604469B
:10C08000FFF715FAB04DB5F90C1088425DD0288A3B
:10C09000411C2982B84258D2A94F30148037A0469B
:10C0A000BC64002802DDFFF732FA01E0FFF70EFA68
:10C0B00040B2A34C07280AD2DFE800F00904063F8B
:10C0C00041434500288800E06888A4F822014046E2
:10C0D000FFF718FC7864B4F92211BC34FFF76BFC4D
:10C0E0003864B4F90000B4F90410B4F90250411AEC
:10C0F00093482C30FFF703FDB4F90600291A904845
:10C100005830FFF7FCFC01460022304662F30F0076
:10C1100061F31F40B4F96610FFF78DFC3865A08A03
:10C120002085E08A60858648DC300446FEF776FA92
:10C130002046BDE8F041FEF748BCA888C5E7E8887E
:10C14000C3E72889C1E76889BFE7BDE8F04100205F
:10C1500058E72DE9F0410F460446FFF7A8F90328F8
:10C1600057D0794D688A411C6982B84251D2744FC8
:10C17000A0468037BC64FFF7A9F9714C07280AD2A2
:10C18000DFE800F00904063F41434500288800E04D
:10C190006888A4F822014046FFF7B4FB7864B4F93C
:10C1A0002211BC34FFF707FC3864B4F90000B4F97D
:10C1B0000410B4F90250411A61482C30FFF79FFC7B
:10C1C0008046B4F90600291A5D485830FFF797FCFD
:10C1D000014668F30F06304661F31F40B4F966105C
:10C1E000FFF729FC3865A08A2085E08A60855448DD
:10C1F000DC300446FEF712FA2046BDE8F041FEF7B7
:10C20000E4BBA888C5E7E888C3E72889C1E768894F
:10C21000BFE7BDE8F0410020F4E62DE9F0410C460F
:10C220000746FFF744F903284AD04748828A511C41
:10C230008182A24244D2424D8035AF64FFF746F975
:10C24000C0EB001080044FF4B47190FBF1F03C4C53
:10C25000A4F806013846BC34FFF754FB6864B4F90F
:10C260004A10FFF7A8FB2864B4F90000B4F90410E1
:10C27000B4F90270411AA4F19000FFF740FC804627
:10C28000B4F90600391AA4F16400FFF738FC01463E
:10C2900068F30F06304661F31F40B4F94A10FFF708
:10C2A000CAFB2865A08A2085E08A608504F1200009
:10C2B0000446FEF7B3F92046BDE8F041FEF785BB22
:10C2C000BDE8F04100209DE62DE9F0410C4607460F
:10C2D000FFF7EDF803287DD01B48B0F91620511C5C
:10C2E000C182A2427EDA164D8035AF64FFF7E5F9D0
:10C2F000134CA4F806013846BC34FFF703FB68640E
:10C30000B4F94A10FFF757FB2864B4F90000B4F9F8
:10C3100002703DE07801002025303136643A206E0D
:10C32000616D653A5B25735D2069643A5B25645DE8
:10C33000206D73673A5B25735D0A0000880000205A
:10C34000E00100209800002062000020240400404A
:10C350002425642025643B004D53472066726F6D91
:10C36000207461736B5F30343A2048656C6C6F20C9
:10C370004920616D207461736B203034000000002F
:10C380006D6F746F725F636F6E74726F6C0000001C
:10C39000B4F90410411AA4F19000FFF7B0FB8046F5
:10C3A000B4F90600391AA4F16400FFF7A8FB0146AE
:10C3B00068F30F06304661F31F40B4F94A10FFF7E7
:10C3C0003AFB2865A08A2085E08A608504F1200078
:10C3D000044600E006E0FEF721F92046BDE8F04102
:10C3E000FEF7F3BABDE8F04100200BE62DE9F0417D
:10C3F0006F4D00276F4CB5F91820531C2B838A42D0
:10C4000039DA04F18005A864A4F80671BC34FFF79A
:10C4100079FA6864B4F94A10FFF7CDFA2864B4F9E0
:10C420000000B4F90410B4F90270411AA4F19000AC
:10C43000FFF765FB8046B4F90600391AA4F16400E1
:10C44000FFF75DFB0146304668F30F0061F31F40C4
:10C45000B4F94A10FFF7EFFA2865A08A2085E08A30
:10C46000608504F120000446FEF7D8F82046BDE8B8
:10C47000F041FEF7AABAFFF729F802214E48FDF76E
:10C480008CFCFFF732F924F8BC7F4FF4FA7001F00E
:10C4900093F860802F83BDE8F0812DE9F041454D90
:10C4A00006468035A864FFF708F9424CA4F8060157
:10C4B0003046BC34FFF726FA6864B4F94A10FFF737
:10C4C0007AFA2864B4F90000B4F90410B4F90270DF
:10C4D000411AA4F19000FFF712FB0646B4F90600DA
:10C4E000391AA4F16400FFF70AFB0146404666F3DF
:10C4F0000F00A68361F31F40E183B4F94A10FFF7F0
:10C500009AFA2865A08A2085E08A608504F12000D7
:10C510000446FEF783F82046BDE8F041FEF755BA21
:10C52000FDF786BFFDF780BF10B5224CB4F91E01A0
:10C53000B4F90A11411A2046FFF7E1FA47F6FF71F4
:10C54000884202DAC943884200DC0846A4F8BE00EB
:10C550001A48FFF702FC1A48008810BD10B5FDF715
:10C560003AFF144C24F8F20F012024F8160C40F284
:10C57000E470A0844FF40060E08440F6B830E085B9
:10C580004620A085282024F83A0C502024F8380CA6
:10C59000002001F011F824F8360C4FF4FA7001F085
:10C5A0000BF824F8340CFEF791FF608310BD0000F7
:10C5B00062000020E001002088000020E40200204A
:10C5C00024040040104910B50E480860FEF7C2FC74
:10C5D000FEF744FA0D4ABDE810400D491046FEF73B
:10C5E000BDBA10B5FEF704FCBDE810400948FEF7DF
:10C5F000BFBCFFF732BDFEF769FC00BFFEF775FC5C
:10C60000FCE700000080000808ED00E0B800002012
:10C610007B9F0008780100202DE9F0410024061BD3
:10C62000254671F1000605DA01240027D0EB07004A
:10C6300067EB0101161E73F1000605DA0027D2EB45
:10C640000702012567EB030300F03FF886460E461C
:10C6500017469C46AC4204D00025D0EB050E65EB96
:10C66000010624B10020D2EB000760EB030C7046FA
:10C6700031463A466346BDE8F081D2B201E000F8A7
:10C68000012B491EFBD270470022F6E710B5134676
:10C690000A4604461946FFF7F0FF204610BD30B5A4
:10C6A0000B46014600202022012409E021FA02F570
:10C6B0009D4205D303FA02F5491B04FA02F528440A
:10C6C000151EA2F10102F1DC30BD2DE9F05F054637
:10C6D000002092469B4688460646814640241BE041
:10C6E000284641464746224600F0F9F953465A4645
:10C6F000C01A914110D311461846224600F0E0F9C5
:10C700002D1A67EB01084F4622460120002100F058
:10C71000D7F917EB00094E41201EA4F10104DFDC1C
:10C72000484631462A464346BDE8F09F2DE9FE4F74
:10C73000804681EA0300C00F0C46009021F00041C2
:10C7400023F00045B8EB0200A94105D2404621463E
:10C7500090461C460B46024623F00040104347D04B
:10C76000270DC7F30A00C3F30A510290401A019043
:10C7700040286BDAC3F3130040F4801B0098924604
:10C7800020B10023D2EB030A63EB0B0B019859464F
:10C79000C0F14002504600F093F906460D4650465F
:10C7A0005946019A00F0ABF910EB080061410024F2
:10C7B00087EA115284EAE7731A4340D0009A62B3C1
:10C7C000019A012A4FEA075215DC001B61EB0201B6
:10C7D0004FF0004202EA0752CDE90042001C41F549
:10C7E000801132462B4600F0ABF903B0BDE8F08F64
:10C7F00040462146F9E7001B61EB0201001C41F5B0
:10C80000801300185B412018A2F5001747EB0301C5
:10C8100040EAD570B6196D4111E06D084FEA360651
:10C8200045EAC0754FEA0752001B61EB0201001C8C
:10C8300041F5801149084FEA300000195141324654
:10C840002B4603B0BDE8F04F00F06BB90098012211
:10C8500040000023D0EB020263EBE0730098214616
:10C860004FEAE074B8EB000061EB0401E9E783F004
:10C8700000435BE781F0004158E72DE9FE4F81EA74
:10C88000030404F0004421F0004100944FF0000B39
:10C8900023F0004350EA01045ED052EA03045BD067
:10C8A000C3F30A54C1F30A552C44A4F2F33401949F
:10C8B000A0FB0254C1F3130141F48011C3F313032D
:10C8C00043F4801301FB024400FB034E840A970AE1
:10C8D00044EA815447EA8357A4FB076802958D0A0E
:10C8E00005FB07854FEA932C04FB0C542705029D9A
:10C8F0004FEA065847EA1637B5EB08056EEB070C0A
:10C90000870E920E47EA811742EA8312A7FB0201C3
:10C91000B6EB0B0164EB00042B0D43EA0C335E18FD
:10C9200044EB1C50DA465146E7FB0201C5F3130401
:10C930004FEA0B3343EA14534FEA0432019C43EAB3
:10C940000603A4F10C040294009CCDE900B400F0AD
:10C95000F7F803B0BDE8F08F00200146F9E72DE9B4
:10C96000F04D81EA030404F0004B21F00045144629
:10C970004FF0000A23F0004150EA050220D054EAAB
:10C9800001021DD0C5F30A570246C5F31303C1F3D4
:10C990001300C1F30A5640F4801543F48013A7EB4B
:10C9A0000608101BD64608F2FD3873EB050002D3CB
:10C9B00008F1010801E092185B41B8F1000F03DAB9
:10C9C00000200146BDE8F08D00204FF4801106469E
:10C9D00084460EE0171B73EB050705D3121B63EBB0
:10C9E000050306434CEA010C49084FEA300092184F
:10C9F0005B4150EA0107EDD152EA030012D082EA0E
:10CA0000040083EA0501084305D0101BAB4106D2A0
:10CA10000122002306E000224FF0004302E06FF005
:10CA2000010253101AEB06004CEB085110EB0A0000
:10CA300041EB0B01BDE8F04D00F073B8C1F30A52B1
:10CA4000C1F3130140F2FF3341F480119A4202DA3C
:10CA500000200146704740F233439A42A2F233422B
:10CA600002DC524200F03BB800F02AB830B5041E98
:10CA700071F1000404DB4FF00044404264EB01011B
:10CA8000141E73F1000405DB1C464FF000435242B4
:10CA900063EB0403994208BF904230BD064C074D3A
:10CAA00006E0E06840F0010394E80700984710347E
:10CAB000AC42F6D3FBF71EFB7CD900089CD90008DA
:10CAC000202A04DB203A00FA02F10020704791404E
:10CAD000C2F1200320FA03F3194390407047202A43
:10CAE00004DB203A21FA02F00021704721FA02F318
:10CAF000D040C2F120029140084319467047202AD5
:10CB000006DBCB17203A41FA02F043EAE07306E075
:10CB100041FA02F3D040C2F1200291400843194685
:10CB2000704710B5141E73F1000408DA401C41F17F
:10CB3000000192185B411A4301D120F0010010BDA1
:10CB40002DE9F04D92469B4611B1B1FA81F202E017
:10CB5000B0FA80F220329046FFF7B2FF04460F464B
:10CB600040EA0A0041EA0B0153465A46084313D0F3
:10CB7000114653EA010019D0C8F140025046FFF7B0
:10CB8000AEFF05460E46504659464246FFF798FF0F
:10CB9000084305D0012004E020463946BDE8F08D69
:10CBA0000020054346EAE0762C4337430A986305A4
:10CBB000E40AA0EB08000022FD0A44EA47540A30C8
:10CBC00002D500200146E9E7010510196941DDE9B8
:10CBD000084500196941BDE8F04DA2E70FB4054BC7
:10CBE00010B503A9044A029800F0ECF810BC5DF8F7
:10CBF00014FB0000E3AB00087C00002037B51446AE
:10CC00000846064B6A46214600F0DCF804466946B1
:10CC1000002000F06EFC20463EBD0000F3D400086A
:10CC200002E008C8121F08C1002AFAD170477047F5
:10CC3000002001E001C1121F002AFBD17047000053
:10CC40002DE9FF5F82B00021DDE90430020DDDF83F
:10CC500040B0034318D044F61050A2F2FF324243D2
:10CC60001514119801281FD0A5EB0B00401C5FEA9A
:10CC7000000A4FF000064E4FDFF83891B04650469C
:10CC800015D5CAF1000413E0119801244AA3012824
:10CC900001D16FEA0B010298119AC0E90031C0E995
:10CCA000024206B0BDE8F09FCBF10000DFE704468A
:10CCB0000021404A491842EB0450CDE9001012E02F
:10CCC000E00707D032463B4640464946FFF7D5FDD0
:10CCD0008046894632463B4610461946FFF7CDFD51
:10CCE00006460F466410002CEAD1DDE90401DDE9B7
:10CCF0000023BAF1000F06DAFFF7BFFD42464B46AC
:10CD0000FFF7BBFD05E0FFF72AFE42464B46FFF763
:10CD100026FE04460E460022284BFFF7A7FE03D846
:10CD20004FF0FF30014607E00022254B20463146F8
:10CD3000FFF7FCFCFFF782FE102409E0002C0ADB61
:10CD40000A220023FFF7C1FC039B30321A55641EF0
:10CD500050EA0102F2D1641C039AC4F11103144495
:10CD6000119A012A03D0012208430DD10AE0084399
:10CD700004D000204FF0110B119072E7A3EB0B05CC
:10CD80006D1E0DE05B4504DD4FF0000205F101056D
:10CD900004E003DA4FF00002A5F10105002AECD00F
:10CDA00002981199C0E90231C0E9004579E7000015
:10CDB000000014400000F03F300000000000F0438D
:10CDC0000000E03F2DE9FF4F95B09B46894606469F
:10CDD00000250FE2252877D100242746F84A0121B3
:10CDE000059400E0044316F8013F203B01FA03F0EC
:10CDF0001042F7D130782A2811D06FF02F03307805
:10CE0000A0F13002092A16D8059A44F0020402EB78
:10CE1000820203EB42021044761C0590EFE759F8BA
:10CE2000042B0592002A03DA504244F40054059082
:10CE300044F00204761C30782E2816D116F8010F23
:10CE400044F004042A280DD06FF02F023078A0F1AE
:10CE50003003092B09D807EB870302EB4303C718FC
:10CE6000761CF3E759F8047B761C30786C280FD0D9
:10CE700006DC4C2817D068280DD06A2814D104E0AD
:10CE8000742810D07A280FD10DE044F400140AE081
:10CE900044F4801401E044F440147278824202D1D8
:10CEA00004F58014761C761C307866280BD013DCD1
:10CEB000582877D009DC002875D04528F6D04628B8
:10CEC000F4D047281AD19DE118E0632835D06428B2
:10CED00079D0652812D195E1702873D008DC6728D5
:10CEE000F1D069286FD06E280DD06F2806D1B5E03B
:10CEF00073282CD0752875D0782874D05A46179985
:10CF000090476D1C75E1C4F30250022809D0032834
:10CF10000DD0D9F8001004280DD00D6009F10409D6
:10CF200067E1D9F80010EA17C1E90052F6E7D9F82D
:10CF300000100D80F2E70D70F0E719F8041B8DF872
:10CF4000001000208DF80100EA46012003E059F8A6
:10CF500004AB4FF0FF3061074FF0000102D40DE049
:10CF600008F101018846B9420FDA8045F8DB1AF86A
:10CF700008100029F4D108E008F101018846814237
:10CF8000FADB1AF808100029F6D105985B46A0EBE9
:10CF9000080721463846179A00F094FA284400EB17
:10CFA000080507E04DE029E10DE01AF8010B5A46AB
:10CFB00017999047B8F10108F7D25B4621463846E9
:10CFC000179A13E142E00A220092C4F302524FF092
:10CFD000000A022A08D059F804CB032A4FEAEC7160
:10CFE0000AD00DE029E02AE009F1070121F007024B
:10CFF000F2E802C1914609E00FFA8CFC4FEAEC71AD
:10D00000042A03D14FFA8CFC4FEAEC71002907DAAD
:10D010000A460021DCF1000C61EB02012D2202E046
:10D02000220504D52B228DF80420012203E0E2071B
:10D0300001D02022F7E7904659E00A2102E01022B1
:10D040000DE010214FF0000A00910BE010224FF08C
:10D05000000A44F004040827009203E008224FF07D
:10D06000000A0092C4F30252022A05D059F804CBF8
:10D070000021032A08D009E009F1070121F0070285
:10D08000F2E802C1914605E01FFA8CFC042A01D1A6
:10D090000CF0FF0C4FF00008220728D5702806D0AE
:10D0A000009B83F0100353EA0A0305D00EE04022F0
:10D0B0008DF80420012208E05CEA010206D030224B
:10D0C0008DF804208DF8050002229046009B83F025
:10D0D000080353EA0A030AD15CEA010201D162079C
:10D0E00005D530228DF804204FF001087F1E582806
:10D0F00004D034A003900EA802900DE036A0F9E70A
:10D1000053466046009AFFF7E0FA84460398825C33
:10D110000298401E029002705CEA0100F0D1029871
:10D1200006A9081A00F1200A600702D524F4803409
:10D1300000E00127574502DDA7EB0A0000E00020D0
:10D1400000EB0A01009005984144401A0590E00365
:10D1500006D45B462146179A059800F0B3F90544BA
:10D16000002706E001A85A46C05D179990476D1C3C
:10D170007F1C4745F6DBE0030CD55B462146179A3A
:10D18000059800F09FF9054404E030205A461799AD
:10D1900090476D1C0099481E00900029F5DC08E0BE
:10D1A000029802995A460078491C029117999047B3
:10D1B0006D1CBAF10001AAF1010AF1DC65E1000081
:10D1C000092801003031323334353637383961625D
:10D1D0006364656600000000303132333435363721
:10D1E00038394142434445460000000000F058F9F8
:10D1F0000544761C307800287FF4ECAD19B0284641
:10D20000BDE8F08F620700D4062709F1070222F07B
:10D21000070CFCE80223E14603F000485FEA080C33
:10D2200002D00FF2702C0DE05FEA045C02D50FF221
:10D23000682C07E05FEAC47C02D00FF2602C01E0AA
:10D24000AFF2700C4FF0FF3823F00043CDF850C020
:10D2500065280CD006DC452809D046281DD0472873
:10D260003DD13DE0662818D067287ED138E0002106
:10D27000112F01DB112000E0781CCDE9000106A987
:10D280000EA8FFF7DDFCDDE90F010E9A03910021E6
:10D29000009207F1010A04914DE04FF00040009721
:10D2A000CDE9011006A90EA8FFF7CAFCDDE90F02BF
:10D2B00003920E9B11990022DDF80CA000930492BA
:10D2C00011B9791C00EB010AB7EB0A0004D4C0F1D4
:10D2D000FF3007F1010A0490AAEB0700019044E037
:10D2E000012F00DA01270021112F01DD112000E0BC
:10D2F0003846CDE9000106A90EA8FFF7A1FCDDE93B
:10D300000F010E9A0391002104910092BA46210761
:10D310000CD40399514500DA8A46BAF1010F05DDB4
:10D32000009AAAF10101515C302908D0B84202DA12
:10D3300010F1040F06DA0121CDE9011015E0AAF180
:10D340000101E9E7002805DC049901440491AAEBF6
:10D35000000102E0411C514500DD8A460499401A53
:10D36000401C01904FF000400290200704D4019827
:10D37000504501DBCDF8048000208DF84F00029865
:10D380000DF14F07B0F1004F25D02B200E900298E1
:10D390004FF0020800280CDA404202902D200E9037
:10D3A00007E00A210298FFF77AF93031029007F876
:10D3B000011DB8F10001A8F10108F2DC0298002873
:10D3C000EFD1791E0E980870307800F0200040F000
:10D3D000450007F8020D12A8C01B00F107081498B9
:10D3E000007800B1012000EB0A01019801EBE07127
:10D3F00005984144401A401E0590E00306D45B4660
:10D400002146179A059800F05DF8054414980078B5
:10D4100018B15A46179990476D1CE00324D55B4616
:10D420002146179A059800F04DF805441CE0049831
:10D43000002807DBDDE90301884203DD0098405C3A
:10D44000179901E0179930205A469047049805F142
:10D450000105401C04900198401E019004D12E202B
:10D460005A46179990476D1CBAF10001AAF1010ABA
:10D47000DDDC05E017F8010B5A46179990476D1C43
:10D48000B8F10001A8F10108F4DC5B462146179AC7
:10D490000598ABE62D0000002B00000020000000E6
:10D4A0002DE9F041044600251E461746880404D4A1
:10D4B00005E039462020B0476D1C641EF9D528468A
:10D4C000BDE8F0812DE9F041044600251E46904656
:10D4D000C80301D5302700E02027880404D505E0E3
:10D4E00041463846B0476D1C641EF9D52846BDE854
:10D4F000F0810A68531C0B601070704710B500284B
:10D5000021D0114B0022001F196803E0814203D88B
:10D510000A4649680029F9D152B11368841A9C421D
:10D5200004D1006818441060104602E0506000E02A
:10D53000186039B102680B1A934203D10B681A4480
:10D5400002604968416010BD80000020F0B50B30DA
:10D55000154D20F007010024144A0FE003688B42A8
:10D560000BD38B4205D95E1A43184768C3E900679D
:10D5700000E04368136002C004E0021D1068002848
:10D58000ECD12046002802D1286808B10020F0BD67
:10D59000064A07481060074A121A22F00702C0E93B
:10D5A000002401202860D7E78400002080000020AC
:10D5B0000C030020080B002080034FF47A7190FBCD
:10D5C000F1F000B270470000C90092015B02240331
:10D5D000ED03B6047F0548061107D907A2086A09BA
:10D5E000330AFB0AC40B8C0C540D1C0EE30EAB0F5C
:10D5F00072103A110112C8128F1355141C15E2153E
:10D60000A8166E173318F918BE19821A471B0B1C7F
:10D61000CF1C931D571E1A1FDD1F9F20612123223F
:10D62000E522A62367242825E825A826672726289B
:10D63000E528A329612A1F2BDC2B992C552D112EAF
:10D64000CC2E872F4130FB30B5316E322633DF339D
:10D6500096344D350436BA366F372438D9388C397C
:10D66000403AF23AA53B563C073DB83D683E173F6D
:10D67000C53F73402141CE417A422543D0437A448D
:10D680002445CD4575461C47C34769480F49B449F1
:10D69000584AFB4A9D4B3F4CE04C814D204EBF4EBB
:10D6A0005D4FFB4F97503351CE51685202539B53FD
:10D6B0003254C9546055F5558A561D57B0574258D3
:10D6C000D3586459F359825A0F5B9C5B285CB35C56
:10D6D0003E5DC75D4F5ED75E5D5FE35F6860EB6098
:10D6E0006E61F0617162F1627063EE636C64E864B4
:10D6F0006365DD655666CF664667BC673268A668B7
:10D7000019698B69FD696D6ADC6A4A6BB76B236CBA
:10D710008E6CF86C616DC96D306E966EFB6E5E6FCF
:10D72000C16F22708370E27040719D71F971547203
:10D73000AE7207735E73B5730A745F74B274047566
:10D740005575A575F37541768D76D87622776B770A
:10D75000B377FA773F788478C77809794A798979F5
:10D76000C879057A417A7C7AB67AEE7A267B5C7B38
:10D77000917BC57BF87B297C597C887CB67CE37CDB
:10D780000E7D397D627D897DB07DD57DFA7D1D7EE2
:10D790003E7E5F7E7E7E9C7EB97ED57EEF7E097F5B
:10D7A000217F377F4D7F617F747F867F977FA67F44
:10D7B000B47FC17FCD7FD87FE17FE97FF07FF57FA8
:10D7C000F97FFD7FFE7F00000D0A202F202F202FE4
:10D7D000202F202F5F2F202F202F202F202F202F92
:10D7E0005F2F20285F5F202029202F202F202F202F
:10D7F000205F5F2F202F202F202F202F5F2F202F03
:10D8000020205F5F2F202F20205F5F2F2F202F5F92
:10D810005F2F202F5F2F202F202F202F202F202F12
:10D82000202F00000D0A2F5F2F202F5F2F5C5F5FDE
:10D830005F5F2F5F2F202F5F2F5C5F5F2C202F5F9C
:10D840005F5F5F2F5F2F202F5F2F5C5F5F5F2F5F1A
:10D850002F202F5F2F5C5F5F2C202F5C5F5F5F2F7F
:10D860005F2F5C5F5F5F285F295F5F5F2F5C5F5F9B
:10D870005F5F2F5F2F202F5F2F202F5F2F00000073
:10D880000D0A20202F205F5F205C2F205F5F205C2F
:10D890002F205F5F205C2F205F5F20602F205F5F65
:10D8A0005F2F205F5F205C2F205F205C2F205F5F59
:10D8B000205C2F205F5F20602F205F205C2F202FB7
:10D8C000205F205C202F205F5F5F2F205F5F205C48
:10D8D0002F205F5F20605F5F205C00000D0A20202A
:10D8E00020205F5F202020202020202020202020BA
:10D8F0002020202020202020202020202020205FE9
:10D900005F202020202020202020202020202020D8
:10D9100020202020202020202020205F5F000000E9
:10D920000D0A2020202F202F5F20205F5F5F5F20C7
:10D93000205F5F5F5F20205F5F5F5F205F5F5F5FF3
:10D940005F5F2F202F5F20205F5F5F20205F5F5F82
:10D950005F20205F5F5F5F205F5F5F5F20202F2081
:10D960002F5F5F2020205F5F5F5F5F5F5F5F5F20F3
:10D97000205F5F5F5F205F5F5F0000009CD9000851
:10D98000000000208800000020CC000824DA0008F5
:10D9900088000020801E000030CC00080204060829
:10D9A0000000000001020304010203040607080945
:10D9B00000A24A040000000000000000010203046D
:10D9C0000607080900000000000000000000000039
:10D9D0000000000000000000000000000100000046
:10D9E0000000000000010000000000000000000036
:10D9F0000000000000000000000000000000000027
:10DA0000AA2A55550080AAAA55D503000000000097
:10DA10000000000000000000000000000000000006
:04DA20000000000002
:04000005080080ED82
:00000001FF
